:100000000C944A000C9467000C9467000C946700F1
:100010000C9467000C9467000C94BE000C9467006D
:100020000C9467000C9467000C9467000C94E60035
:100030000C9467000C9467000C9467000C946700A4
:100040000C9467000C9467000C9467000C94670094
:100050000C94670000000000000000000000000099
:100060000000000000000000000000000000000090
:100070000000000000000000000000000000000080
:100080000000000000000000000000000000000070
:100090000000000011241FBECFE5D4E0DEBFCDBFBD
:1000A00010E0A0E6B0E0E6E6F2E002C005900D92B6
:1000B000A837B107D9F710E0A8E7B0E001C01D925A
:1000C000AC37B107E1F70E9416010C9431010C9492
:1000D00000001092780081E090E04FEF49C055B3E6
:1000E000BC0102C0660F771F2A95E2F79B01362FED
:1000F000307F352B35BB3BB32F70232B2BBB10929E
:1001000079002DC030E0F901EE0FFF1FE20FF31F61
:10011000E05AFF4F208128BB35B321812F70232B5C
:1001200025BB3BB32181207F232B2BBB228122BB0C
:100130007AE67A95F1F700C048BB2AE62A95F1F7EE
:1001400000C025B32F6025BB2BB3206F2BBB6AE605
:100150006A95F1F700C042BB5F5F50937900509100
:10016000790020917800553068F22F5F2093780055
:1001700020917800283008F4B2CF08951F920F9292
:100180000FB60F9211242F933F934F935F936F936A
:100190007F938F939F93AF93BF93EF93FF93549A63
:1001A000539A0E94690054985398FF91EF91BF9120
:1001B000AF919F918F917F916F915F914F913F91FF
:1001C0002F910F900FBE0F901F9018951F920F92B6
:1001D0000FB60F9211242F933F938F939F93AF935A
:1001E000BF93EF93FF933CB130937B0020E0822FCD
:1001F00090E0FC01EC5AFF4FE491805A9F4FDC01E4
:10020000EC932F5F283198F3209378005D9BFECF0D
:100210003CB9FF91EF91BF91AF919F918F913F9129
:100220002F910F900FBE0F901F9018958FEF81BBED
:1002300084BB87BB8ABB0E9469008EB588608EBD77
:1002400089B7806189BF1DBC1CBC8CE990E09BBD57
:100250008ABD10BC87E689B980EC8AB986E880BD82
:06026000FFCFF894FFCF70
:10026600FFFFFFFFFFFFFFFFFFFFFFFFFFFFFFFF98
:08027600FFFFFFFFFFFFFFFF88
:00000001FF
